{
  "_format": "hh-sol-artifact-1",
  "contractName": "InvestmentContract",
  "sourceName": "Contracts/InvestmentContract.sol",
  "abi": [
    {
      "inputs": [
        {
          "internalType": "address",
          "name": "_investor",
          "type": "address"
        },
        {
          "internalType": "address",
          "name": "_startup",
          "type": "address"
        },
        {
          "internalType": "uint256",
          "name": "_investmentAmount",
          "type": "uint256"
        },
        {
          "internalType": "uint256",
          "name": "_equityPercentage",
          "type": "uint256"
        }
      ],
      "stateMutability": "nonpayable",
      "type": "constructor"
    },
    {
      "anonymous": false,
      "inputs": [
        {
          "indexed": true,
          "internalType": "address",
          "name": "startup",
          "type": "address"
        }
      ],
      "name": "ContractAccepted",
      "type": "event"
    },
    {
      "anonymous": false,
      "inputs": [
        {
          "indexed": true,
          "internalType": "address",
          "name": "investor",
          "type": "address"
        },
        {
          "indexed": true,
          "internalType": "address",
          "name": "startup",
          "type": "address"
        },
        {
          "indexed": false,
          "internalType": "uint256",
          "name": "investmentAmount",
          "type": "uint256"
        },
        {
          "indexed": false,
          "internalType": "uint256",
          "name": "equityPercentage",
          "type": "uint256"
        }
      ],
      "name": "ContractCreated",
      "type": "event"
    },
    {
      "anonymous": false,
      "inputs": [
        {
          "indexed": true,
          "internalType": "address",
          "name": "startup",
          "type": "address"
        }
      ],
      "name": "ContractDeclined",
      "type": "event"
    },
    {
      "inputs": [],
      "name": "declineContract",
      "outputs": [],
      "stateMutability": "nonpayable",
      "type": "function"
    },
    {
      "inputs": [],
      "name": "equityPercentage",
      "outputs": [
        {
          "internalType": "uint256",
          "name": "",
          "type": "uint256"
        }
      ],
      "stateMutability": "view",
      "type": "function"
    },
    {
      "inputs": [],
      "name": "investmentAmount",
      "outputs": [
        {
          "internalType": "uint256",
          "name": "",
          "type": "uint256"
        }
      ],
      "stateMutability": "view",
      "type": "function"
    },
    {
      "inputs": [],
      "name": "investor",
      "outputs": [
        {
          "internalType": "address",
          "name": "",
          "type": "address"
        }
      ],
      "stateMutability": "view",
      "type": "function"
    },
    {
      "inputs": [],
      "name": "investorSigned",
      "outputs": [
        {
          "internalType": "bool",
          "name": "",
          "type": "bool"
        }
      ],
      "stateMutability": "view",
      "type": "function"
    },
    {
      "inputs": [],
      "name": "releasePayment",
      "outputs": [],
      "stateMutability": "payable",
      "type": "function"
    },
    {
      "inputs": [],
      "name": "signByInvestor",
      "outputs": [],
      "stateMutability": "nonpayable",
      "type": "function"
    },
    {
      "inputs": [],
      "name": "signByStartup",
      "outputs": [],
      "stateMutability": "nonpayable",
      "type": "function"
    },
    {
      "inputs": [],
      "name": "startup",
      "outputs": [
        {
          "internalType": "address",
          "name": "",
          "type": "address"
        }
      ],
      "stateMutability": "view",
      "type": "function"
    },
    {
      "inputs": [],
      "name": "startupSigned",
      "outputs": [
        {
          "internalType": "bool",
          "name": "",
          "type": "bool"
        }
      ],
      "stateMutability": "view",
      "type": "function"
    }
  ],
  "bytecode": "0x60806040523480156200001157600080fd5b5060405162000bad38038062000bad833981810160405281019062000037919062000167565b836000806101000a81548173ffffffffffffffffffffffffffffffffffffffff021916908373ffffffffffffffffffffffffffffffffffffffff16021790555082600160006101000a81548173ffffffffffffffffffffffffffffffffffffffff021916908373ffffffffffffffffffffffffffffffffffffffff16021790555081600281905550806003819055508273ffffffffffffffffffffffffffffffffffffffff168473ffffffffffffffffffffffffffffffffffffffff167ffab0e42748281d7ded0b8035c108061734a19fc87373b21ab917a4550826cbaf848460405162000127929190620001e4565b60405180910390a35050505062000283565b6000815190506200014a816200024f565b92915050565b600081519050620001618162000269565b92915050565b600080600080608085870312156200017e57600080fd5b60006200018e8782880162000139565b9450506020620001a18782880162000139565b9350506040620001b48782880162000150565b9250506060620001c78782880162000150565b91505092959194509250565b620001de8162000245565b82525050565b6000604082019050620001fb6000830185620001d3565b6200020a6020830184620001d3565b9392505050565b60006200021e8262000225565b9050919050565b600073ffffffffffffffffffffffffffffffffffffffff82169050919050565b6000819050919050565b6200025a8162000211565b81146200026657600080fd5b50565b620002748162000245565b81146200028057600080fd5b50565b61091a80620002936000396000f3fe6080604052600436106100915760003560e01c8063b3892c6411610059578063b3892c6414610159578063d116c8c414610184578063e4f2e4e81461018e578063ef23b813146101a5578063f4a92299146101bc57610091565b80631e0018d61461009657806367bbe321146100c15780636d20676e146100ec5780636faa10b9146101175780639818227614610142575b600080fd5b3480156100a257600080fd5b506100ab6101e7565b6040516100b8919061079a565b60405180910390f35b3480156100cd57600080fd5b506100d661020b565b6040516100e39190610870565b60405180910390f35b3480156100f857600080fd5b50610101610211565b60405161010e9190610870565b60405180910390f35b34801561012357600080fd5b5061012c610217565b60405161013991906107b5565b60405180910390f35b34801561014e57600080fd5b5061015761022a565b005b34801561016557600080fd5b5061016e6102d5565b60405161017b919061079a565b60405180910390f35b61018c6102fb565b005b34801561019a57600080fd5b506101a3610411565b005b3480156101b157600080fd5b506101ba610523565b005b3480156101c857600080fd5b506101d161061a565b6040516101de91906107b5565b60405180910390f35b60008054906101000a900473ffffffffffffffffffffffffffffffffffffffff1681565b60025481565b60035481565b600460009054906101000a900460ff1681565b60008054906101000a900473ffffffffffffffffffffffffffffffffffffffff1673ffffffffffffffffffffffffffffffffffffffff163373ffffffffffffffffffffffffffffffffffffffff16146102b8576040517f08c379a00000000000000000000000000000000000000000000000000000000081526004016102af90610850565b60405180910390fd5b6001600460006101000a81548160ff021916908315150217905550565b600160009054906101000a900473ffffffffffffffffffffffffffffffffffffffff1681565b600460009054906101000a900460ff1680156103235750600460019054906101000a900460ff165b610362576040517f08c379a000000000000000000000000000000000000000000000000000000000815260040161035990610810565b60405180910390fd5b60025434146103a6576040517f08c379a000000000000000000000000000000000000000000000000000000000815260040161039d906107f0565b60405180910390fd5b600160009054906101000a900473ffffffffffffffffffffffffffffffffffffffff1673ffffffffffffffffffffffffffffffffffffffff166108fc349081150290604051600060405180830381858888f1935050505015801561040e573d6000803e3d6000fd5b50565b600160009054906101000a900473ffffffffffffffffffffffffffffffffffffffff1673ffffffffffffffffffffffffffffffffffffffff163373ffffffffffffffffffffffffffffffffffffffff16146104a1576040517f08c379a0000000000000000000000000000000000000000000000000000000008152600401610498906107d0565b60405180910390fd5b6001600460016101000a81548160ff021916908315150217905550600160009054906101000a900473ffffffffffffffffffffffffffffffffffffffff1673ffffffffffffffffffffffffffffffffffffffff167f49af38404bac216b516e493cd4d5ead95274db4c767aab7ae2f466117a5e29c060405160405180910390a2565b600160009054906101000a900473ffffffffffffffffffffffffffffffffffffffff1673ffffffffffffffffffffffffffffffffffffffff163373ffffffffffffffffffffffffffffffffffffffff16146105b3576040517f08c379a00000000000000000000000000000000000000000000000000000000081526004016105aa90610830565b60405180910390fd5b600160009054906101000a900473ffffffffffffffffffffffffffffffffffffffff1673ffffffffffffffffffffffffffffffffffffffff167f6bf3ea8b66888ced8574e26560357b68ec75fb60d563bcf24f510999c55d701e60405160405180910390a2565b600460019054906101000a900460ff1681565b6106368161089c565b82525050565b610645816108ae565b82525050565b600061065860158361088b565b91507f4f6e6c7920737461727475702063616e207369676e00000000000000000000006000830152602082019050919050565b6000610698601b8361088b565b91507f496e636f727265637420696e766573746d656e7420616d6f756e7400000000006000830152602082019050919050565b60006106d8601c8361088b565b91507f426f74682070617274696573206d757374207369676e206669727374000000006000830152602082019050919050565b600061071860188361088b565b91507f4f6e6c7920737461727475702063616e206465636c696e6500000000000000006000830152602082019050919050565b600061075860168361088b565b91507f4f6e6c7920696e766573746f722063616e207369676e000000000000000000006000830152602082019050919050565b610794816108da565b82525050565b60006020820190506107af600083018461062d565b92915050565b60006020820190506107ca600083018461063c565b92915050565b600060208201905081810360008301526107e98161064b565b9050919050565b600060208201905081810360008301526108098161068b565b9050919050565b60006020820190508181036000830152610829816106cb565b9050919050565b600060208201905081810360008301526108498161070b565b9050919050565b600060208201905081810360008301526108698161074b565b9050919050565b6000602082019050610885600083018461078b565b92915050565b600082825260208201905092915050565b60006108a7826108ba565b9050919050565b60008115159050919050565b600073ffffffffffffffffffffffffffffffffffffffff82169050919050565b600081905091905056fea26469706673582212206508b235f944b9a7cafd932889fa6993bc8ec4dc3a4498752804fa492ace1cf064736f6c63430008000033",
  "linkReferences": {},
  "deployedLinkReferences": {}
}